:020000040800F2
:1000000000500020A51D0008091D00080B1D000858
:100010000D1D00080F1D0008111D00080000000044
:10002000000000000000000000000000131D000898
:10003000151D000800000000171D0008191D00080C
:10004000ED1D0008ED1D0008ED1D0008ED1D000868
:10005000ED1D0008ED1D0008ED1D0008ED1D000858
:100060001D1D0008ED1D0008ED1D0008ED1D000818
:10007000ED1D0008ED1D0008ED1D0008ED1D000838
:10008000ED1D0008ED1D0008ED1D0008ED1D000828
:10009000ED1D0008ED1D0008ED1D0008ED1D000818
:1000A000ED1D0008ED1D0008ED1D0008ED1D000808
:1000B000ED1D0008ED1D0008ED1D0008ED1D0008F8
:1000C000ED1D0008ED1D0008ED1D0008ED1D0008E8
:1000D000ED1D0008ED1D0008ED1D0008ED1D0008D8
:1000E000ED1D0008ED1D0008ED1D000800000000DA
:1000F0000000000000000000000000000000000000
:0C01000000000000000000005FF808F1A3
:1001100010B5054C237833B9044B13B10448AFF341
:1001200000800123237010BD70000020000000003B
:10013000A426000808B5034B1BB103490348AFF3DD
:10014000008008BD0000000074000020A426000804
:10015000034613F8012B002AFBD1181A0138704707
:1001600038B50E4B054618784FF47A73B3FBF0F3AD
:100170000B4A1068B0FBF3F000F0A0F8044658B941
:100180000F2D09D8024629464FF0FF3000F054F8F1
:100190002046044B1D6038BD0120FCE70000002014
:1001A0000800002004000020074A08B51368032057
:1001B00043F01003136000F02DF80020FFF7D0FF8C
:1001C00001F00AFD002008BD00200240034A044B54
:1001D00011681B780B441360704700BFA00000201B
:1001E00000000020014B1868704700BFA0000020ED
:1001F00038B50446FFF7F6FF0546631C1EBF044BE7
:100200001B78E418FFF7EEFF401BA042FAD338BD7D
:1002100000000020074A0002D36800F4E06023F4E5
:10022000E0631B041B0C43F0BF6343F40033034340
:10023000D360704700ED00E0174B70B5DC684FF0FD
:10024000FF36C4F30224C4F10705042D04F10403AE
:1002500028BF0425062B98BF002406FA05F388BFA3
:10026000033C21EA0303A34006FA04F422EA04044F
:10027000002843EA0403A8BF00F160404FEA0313DB
:10028000B8BF064ADBB2ABBF00F5614000F00F001B
:1002900080F80033135470BD00ED00E014ED00E071
:1002A000002808DB0123420900F01F0003FA00F0D8
:1002B000014B43F82200704700E100E00138B0F143
:1002C000807F0AD2F021064B064A586082F823103C
:1002D0000020072298601A6070470120704700BF15
:1002E00010E000E000ED00E02DE9F74F0024264685
:1002F000654BDFF8A4C1DFF8A4E10A6832FA06F51D
:1003000002D103B0BDE8F08F4FF0010808FA06F8FB
:1003100002EA080290457ED14D68122D00F0A980B6
:1003200000F28280022D00F0A18076D8002D00F02E
:100330008880012D00F098804FF00F09FF2A93BFAD
:10034000824606F18045083DD0F800B092BFB50066
:10035000D0F804B0AD0009FA05F82BEA080804FA51
:1003600005F588BF00F1040A48EA0505CAF80050FF
:10037000D1F804A01AF0805F4DD0444F26F0030856
:10038000BD6908F1804845F00105BD61BD6908F50A
:10039000803805F00105019506F0030B019D4FEA39
:1003A0008B0BD8F8085009FA0BF925EA0909384DE2
:1003B000A84263D005F58065A84261D005F5806547
:1003C000A8425FD005F58065A8420CBF032504252F
:1003D00005FA0BF545EA0905C8F808501D681AF436
:1003E000803F14BF154395431D605D681AF4003FBC
:1003F00014BF154395435D609D681AF4801F14BFB8
:10040000154395439D60DD681AF4001F14BF2A430D
:1004100025EA0202DA6001366FE7032D22D0112DA2
:100420008AD1CC68043487E71A4FBD4209D012D86C
:10043000DFF86C904D4504D009F580394D457FF4C7
:100440007BAF8C68C4B1012C0CBFC0F81080C0F821
:100450001480082470E76545F3D07545F1D0DFF8C6
:100460004490EBE7002467E7CC6865E7CC68083484
:1004700062E7CC680C345FE704245DE70025A7E75A
:100480000125A5E70225A3E7000401400010024072
:10049000000801400000211000003110000032105F
:1004A00000001110000022100AB101617047090418
:1004B000FBE7C3680B4214BF416101617047000054
:1004C00008B5044B5969014202D0586100F060FE42
:1004D00008BD00BF000401402DE9F341054608B9FD
:1004E00001203CE00368DB0710D42B689F075DD434
:1004F0002B68190700F194802B685A0700F1BE8021
:10050000E869002840F02C81002028E08F4C6368C7
:1005100003F00C03042B07D0636803F00C03082BD3
:1005200009D16368DE0306D523689C03DDD56B68BB
:10053000002BDAD1D4E76B68B3F5803F12D1236882
:1005400043F480332360FFF74DFE0646236898038B
:10055000CBD4FFF747FE801B6428F7D9032002B0F5
:10056000BDE8F0819BB9236823F4803323602368BE
:1005700023F480232360FFF735FE064623689903A2
:10058000B3D5FFF72FFE801B6428F7D9E6E7B3F554
:10059000A02F236803D143F480232360CFE723F403
:1005A00080332360236823F48023CBE7674C6368A0
:1005B00013F00C0F07D0636803F00C03082B10D165
:1005C0006368DA030DD423689B0702D52B69012BDE
:1005D00086D123686A6923F0F80343EAC2032360E3
:1005E00086E72A695A4B6AB101221A60FFF7FAFDC1
:1005F000064623689F07ECD4FFF7F4FD801B022812
:10060000F7D9ABE71A60FFF7EDFD064623689807B8
:100610007FF56EAFFFF7E6FD801B0228F6D99DE758
:10062000AA694A4C4B4BDAB101221A60FFF7DAFD96
:100630000646636A9B070DD54FF4FA52464B1B687A
:10064000B3FBF2F3019300BF019B5A1E0192002BF2
:10065000F9D151E7FFF7C6FD801B0228E9D97DE7F4
:100660001A60FFF7BFFD0646636A9F077FF544AF38
:10067000FFF7B8FD801B0228F6D96FE7334CE3691A
:10068000D80024D40127E36943F08053E361E36990
:1006900003F080530093009B304E3368D90518D582
:1006A000EB68012B26D1236A43F001032362FFF795
:1006B00099FD41F288368046236A9B073FD5002F7B
:1006C0003FF41EAFE36923F08053E36118E700278E
:1006D000E2E7336843F480733360FFF783FD8046BD
:1006E0003368DA05DCD4FFF77DFDA0EB0800642851
:1006F000F6D933E7ABB9236A41F2883823F0010316
:100700002362236A23F004032362FFF76BFD06468E
:10071000236A9807D3D5FFF765FD801B4045F7D9BD
:100720001CE7052B236A03D143F004032362BAE7D5
:1007300023F001032362236A23F00403B6E7FFF7E3
:1007400051FDA0EB0800B042B6D907E70010024007
:100750000000424280044242080000200070004035
:100760002A4B5A681C4602F00C02082A3DD000238E
:10077000274E022833602BD1FFF734FD074623684C
:1007800099011FD42B6AB3F5803F05D16268A9682F
:1007900022F400320A436260696A62680B4322F401
:1007A00074121343636001233360FFF71BFD05469A
:1007B00023689A013FF5A8AEFFF714FD401B0228FD
:1007C000F6D9CBE6FFF70EFDC01B0228D7D9C5E648
:1007D000FFF708FD054623689B017FF595AEFFF7FF
:1007E00001FD401B0228F6D9B8E601283FF4B7AE58
:1007F00058682B6A00F480329A427FF471AE6B6ABB
:1008000000F47010C01A18BF0120A8E600100240C2
:100810006000424230B5184B87B002AC03F11005BE
:10082000224618685968083303C2AB421446F7D110
:1008300040F201231149ADF804304B6803F00C027B
:10084000082A17D1C3F3834206A80244DB0312F837
:10085000102C0CD54B680A48C3F34043504306AAFA
:10086000134413F8143CB0FBF3F007B030BD054857
:100870005043FAE70248F8E7BC260008001002409F
:1008800000127A0000093D002DE9F0410D460446B2
:1008900010B90120BDE8F081444A136803F0070352
:1008A0008B4228D321688E0730D4CA0743D43F4AED
:1008B000136803F00703AB4265D822683C4D12F081
:1008C000040F6CD1130706D56B68226923F46053BB
:1008D00043EAC2036B60FFF79DFF6B68354AC3F3C1
:1008E0000313D35CD840344B1860344B1868FFF7BF
:1008F00037FC0020CEE7136823F007030B43136097
:10090000136803F007038B42C3D1CBE7284B11F0E8
:10091000040F1EBF5A6842F4E0625A60080742BFE3
:100920005A6842F460525A605A68A06822F0F00295
:1009300002435A60B9E762681D4E012A33681AD132
:1009400013F4003FA5D0736841F2883823F0030305
:1009500013437360FFF746FC07467368626803F051
:100960000C03B3EB820FA2D0FFF73CFCC01B404549
:10097000F3D903208EE7022A02D113F0007FE1E7CA
:1009800013F0020FDEE7136823F007032B43136015
:10099000136803F00703AB427FF47BAF8DE76B680E
:1009A000E16823F4E0630B436B608BE700200240B7
:1009B0000010024011280008080000200400002058
:1009C000044B054A5B68C3F30223D35C034A1068F7
:1009D000D84070470010024021280008080000207D
:1009E000044B054A5B68C3F3C223D35C034A106817
:1009F000D84070470010024021280008080000205D
:100A0000F8B504460E4615461F4621688A6836EA40
:100A1000020301D000202DE06B1CF7D0FFF7E2FBB2
:100A2000C01B8542F1D823685A6822F0E0025A6060
:100A30006268B2F5827F0AD1A268B2F5004F02D097
:100A4000B2F5806F03D11A6822F040021A60A26AE0
:100A5000B2F5005F07D11A6822F400521A601A68D2
:100A600042F400521A60012384F85130002303201D
:100A700084F85030F8BD38B5134642680446B2F5E4
:100A8000827F16D18068B0F5004F02D0B0F5806F3C
:100A90000FD12268B0F5806F156825F0400515600C
:100AA00007D10A4601212046FFF7AAFF20B90020FE
:100AB00038BD0A468021F6E7636D032043F020032A
:100AC0006365F5E710B513460A4680210446FFF733
:100AD00097FF20B10320636D43F02003636510BDD1
:100AE00010B50446002834D00023836290F85130BA
:100AF00003F0FF021BB980F8502001F08FF80223A9
:100B0000226884F851301368A16923F04003136010
:100B1000D4E901300343E06803432069034360697B
:100B20000343E0690343206A0343A06A034301F4DB
:100B30000070090C034301F0040113605160D36994
:100B4000002023F40063D3610123606584F85130F1
:100B500010BD0120FCE72DE9F3411E4690F850300E
:100B60000446012B0D46904600F09C80012380F83E
:100B70005030FFF737FB074694F85100C0B2012808
:100B800040F08E80002D5ED0B8F1000F5BD00323C3
:100B9000002084F85130A3686065A063A4F8368013
:100BA000A087E087C4E910002068B3F5004F08BFB4
:100BB0000368256308BF43F48043A4F8348008BF6A
:100BC00003600368E2685B065EBF036843F04003AE
:100BD0000360B2F5006F63683ED113B1B8F1010F45
:100BE00007D135F8023BC3602563E38E013B9BB21E
:100BF000E386E38E9BB2A3B93A4631462046FFF71F
:100C000061FF002849D1A36833B901932368DA68EA
:100C100001929B680193019B606D003018BF012019
:100C200011E022689368980705D5236B33F8021BFF
:100C3000D1602363D9E7FFF7D5FAC01BB042D8D300
:100C4000711CD6D00320012384F85130002384F88E
:100C5000503002B0BDE8F08113B1B8F1010F08D1F6
:100C60002B780373236B01332363E38E013B9BB229
:100C7000E386E38E9BB2002BBED023689A6892076E
:100C800003D5226B12781A73ECE7FFF7ABFAC01B9F
:100C9000B042EED3731CECD0D4E720236365B2E7F7
:100CA0000220D0E70220D4E72DE9F7431E4690F852
:100CB00050300446012B0D4691460A9F00F0E28019
:100CC000012380F85030FFF78DFA94F851308046B8
:100CD000DBB2012B61680AD0B1F5827F40F0D08091
:100CE000A068002840F0CC80042B40F0C980002D83
:100CF00000F0C480B9F1000F00F0C080002E00F0B9
:100D0000BD8094F85130C4F83890042B1CBF0523E3
:100D100084F8513000236365C4E910332368E68703
:100D2000E6861A68A687500658BF1A68256358BF1A
:100D300042F04002A68658BF1A60E268B2F5006F22
:100D400058D109B1012E07D135F8022BDA60E38EB4
:100D50002563013B9BB2E3860125E38E9BB2ABB9D1
:100D6000E38F9BB293B9424639462046FFF7AAFE6D
:100D7000002840F08180A368002B32D123680190C5
:100D8000DA6801929B680193019B2AE022689368CC
:100D900099070DD5E38E9BB253B14DB10025236B5E
:100DA00033F8021BD1602363E38E013B9BB2E386E1
:100DB0009368DB070CD5E38F9BB24BB10125D2685A
:100DC000A36B23F8022BA363E38F013B9BB2E38762
:100DD000FFF708FAA0EB08008742BED87E1CBCD003
:100DE0000320012384F85130002384F8503003B0ED
:100DF000BDE8F08309B1012E08D12A781A73236B5C
:100E000001332363E38E013B9BB2E3860125E38E2E
:100E10009BB21BB9E38F9BB2002BA4D022689368CE
:100E200098070ED5E38E9BB25BB155B10025236BBD
:100E30001B781373236B01332363E38E013B9BB257
:100E4000E38622689368D9070DD5E38F9BB253B12F
:100E50000125D268A36B1A70A36B0133A363E38FE0
:100E6000013B9BB2E387FFF7BDF9A0EB0800874287
:100E7000CDD87B1CCBD0B3E7202363650120B0E73E
:100E80000220AEE70220B2E72DE9F3411D46436898
:100E90000446B3F5827F884617460CD1836853B960
:100EA000042380F85130134600950A46FFF7FCFEF4
:100EB00002B0BDE8F08194F85030012B7BD00123C3
:100EC00084F85030FFF78EF9064694F85100C0B20E
:100ED00001286ED1B8F1000F59D0002F57D004234C
:100EE00084F851300023A26863652363E787A386F3
:100EF000E386C4E910332368B2F5004F08BF1A68CF
:100F0000A78708BF22F48042C4F8388008BF1A605F
:100F10001A6857065EBF1A6842F040021A60E3681A
:100F2000F3B1E38F9BB2FBB123689A68D20735D542
:100F3000DA68A36B23F8022BA363E38F013B9BB218
:100F4000E387EEE723689A68D00718D51B7BA26B6E
:100F50001370A36B0133A363E38F013B9BB2E38761
:100F6000E38F9BB2002BEDD1324629462046FFF796
:100F700082FDD8B9606D003018BF012007E0FFF78F
:100F800031F9801BA842EBD3691CE9D0032001236F
:100F900084F85130002384F8503089E7FFF722F9B4
:100FA000801BA842BDD36B1CBBD0EFE72023636539
:100FB000E0E70220EBE702207AE7000038B50546BB
:100FC0000368C1681A69192422F440520A431A615D
:100FD00082680069D9680243686921F4B05121F040
:100FE0000C0102430A43DA605A69A96922F440728B
:100FF0000A435A610D4A934214D1FFF7F1FC604352
:101000006C686422A400B0FBF4F0B0FBF2F102FBC8
:1010100011031B013233B3FBF2F32C6803EB011312
:10102000A36038BDFFF7CCFCE9E700BF0038014002
:10103000F8B504460E4617461D4621680B6836EA89
:10104000030301D1002014E06B1CF7D095B923688D
:101050000320DA6822F4D072DA605A6922F00102C1
:101060005A61202384F8393084F83A30002384F818
:101070003830F8BDFFF7B6F8C01B8542DDD2E6E791
:1010800010B5044640B390F8393003F0FF021BB9A5
:1010900080F8382000F0FCFD2423226884F83930E1
:1010A000D368204623F40053D360FFF787FF2368FB
:1010B00000201A6922F490421A615A6922F02A0229
:1010C0005A61DA6842F40052DA602023E06384F85F
:1010D000393084F83A3010BD0120FCE72DE9F041A9
:1010E0001F4690F839300446202B0D4690464CD1CF
:1010F000002948D0002A46D090F83830012B44D03F
:10110000012380F838300023C363212380F839306D
:10111000FFF768F80646A4F82480A4F82680E38C3C
:101120009BB263B93B46324640212046FFF780FF21
:10113000A0B9202384F8380084F839300FE0E38C1C
:101140003246013B9BB2E384A3688021B3F5805F04
:1011500020463B460ED1FFF76BFF10B10320BDE8E0
:10116000F0812B882268C3F308035360236943B9D5
:101170000235D4E7FFF75CFF0028EFD123682A7817
:101180005A600135CBE70120E9E70220E7E70000DC
:101190000428024605D14FF47A7302490248FFF74A
:1011A0009DBF7047CC260008A400002010B5142471
:1011B00090B02246002108A800F04FFE22460021F0
:1011C00001A800F04AFE022401224FF48033CDE949
:1011D0000623CDE90D434FF4E01306A80A920F93BE
:1011E000FFF77AF90F234FF48062CDE90134002331
:1011F000214601A8CDE903320593FFF745FB10B066
:1012000010BD000000000000F0B59FB0FEF7CCFF5D
:10121000FFF7CCFF102200210EA800F01EFEC24BEB
:101220004FF400519A69C14842F010029A619A69DC
:10123000002502F010020392039A9A69022642F0F6
:1012400020029A619A69012702F020020492049A0E
:101250009A69182442F004029A619B69002203F003
:1012600004030593059BFFF71FF900221821B048DE
:10127000FFF71AF94FF400530EA9AC48CDE9105608
:10128000CDE90E37FFF730F80422AA4B0EA9A84883
:10129000CDE90E231095FFF727F80EA9A448CDE954
:1012A0001056CDE90E47FFF71FF82A460721082000
:1012B000FEF7C2FF0820FEF7F3FF4FF482739E484B
:1012C0009E49C0E90255C0E900134FF40073C0E91C
:1012D00006340A23C0E90455C0E908558562C36293
:1012E000FFF7FEFB4FF4E1330C26954C9548C4E91B
:1012F0000255C4E9000320462561C4E90565E5619E
:10130000FFF7BEFE00F07EF900F0E8FA2946402221
:101310000EA800F0A2FD8C4B8C4A40210EA800F0D4
:10132000A5FD0EA8FEF714FF4FF47A7382B20EA942
:101330002046FFF7D3FE00F0CDFB834A0138844BF3
:10134000C0B2FD2898BF13464021824A0EA800F083
:101350008DFD0EA8FEF7FCFE4FF47A7382B20EA943
:101360002046FFF7BBFE00F055FB132000F0A9FA62
:101370006BA1D1E9000100F015FB00F09FFA764A5D
:10138000034640210EA800F071FD0EA8FEF7E0FE16
:101390004FF47A7382B20EA92046FFF79FFE00F049
:1013A00070FB6E4A0346402105460EA800F05EFD24
:1013B0000EA8FEF7CDFE4FF47A7382B20EA9204636
:1013C000FFF78CFE002D40F0DD804FF47A7332463B
:1013D00063492046FFF782FE00F077FA614A034630
:1013E000402100900EA800F041FD0EA8FEF7B0FECF
:1013F0004FF47A7382B20EA95148FFF76FFE00F0E6
:10140000CBFB594A0346402104460EA800F02EFDAE
:101410000EA8FEF79DFE4FF47A7382B20EA94848DB
:10142000FFF75CFE022C4FF47A7340F0C1800D226E
:101430004E494348FFF752FE00F04AFA4C4A034631
:1014400040210EA800F012FD0EA8FEF781FE4FF419
:101450007A7382B20EA93A48FFF740FE00F0ABFB68
:10146000444A0346402104460EA800F0FFFC0EA8A3
:10147000FEF76EFE4FF47A7382B20EA93048FFF782
:101480002DFE002C40F09B804FF47A7312223A49D3
:101490002B48FFF723FE01221146104600F064FAA4
:1014A0000024364D214E00211E220DF11A0000F0BD
:1014B000D4FC45F24D63ADF81830612306A88DF8D1
:1014C0001A308DF80B40FEF743FEC1B206A800F0BB
:1014D00032FA002800F0828000F0B6FAD0B1012183
:1014E0000DF10B0000F055FA4FF400513046FEF7B5
:1014F000E0FF9DF80B30224A40210EA800F0B6FC18
:101500000EA8FEF725FE4FF47A7382B20EA90C489E
:10151000FFF7E4FD6420FEF76BFEC4E7AFF3008045
:10152000E2F0F0E8E8000000001002400010014086
:101530000008014000002110E400002000300140BC
:10154000A400002000380140D5260008D826000855
:10155000D1260008E7260008F12600080527000824
:101560001A2700084F2700086A270008802700086C
:10157000A6270008BA270008D12700080628000877
:10158000FD270008012D04D14FF47A733246164925
:101590001FE7022D04D14FF47A730D22134918E787
:1015A000032D7FF419AF4FF47A733246104910E7D8
:1015B000012C4FF00B020CBF0E490F4939E7012CEB
:1015C00004D14FF47A730B220C4961E7022C7FF4AB
:1015D00062AF4FF47A730C22094959E74FF47A73DA
:1015E0000A22294693E700BF27270008342700086E
:1015F000422700088E2700089A270008E4270008E1
:10160000F0270008054A136843F080731360044A0A
:10161000136843F001031360704700BFFCED00E066
:10162000001000E0064B074A1B68B3FBF2F30022F0
:101630005843054B5A605A688242FCD3704700BF3A
:101640000800002040420F00001000E008B50246EC
:1016500010210448FEF728FFBDE808400520FFF7E9
:10166000E1BF00BF00080140024608210148FEF723
:101670001BBF00BF000801407FB500F01F008DF8C0
:101680000E0000204FF47A7604AC0D4D04F8010DE5
:10169000FFF7DCFF22460DF10E01009601232846DC
:1016A000FFF702FB01232246FF2100962846FFF7A1
:1016B000FBFA0120FFF7CAFF9DF80F0004B070BDD0
:1016C000E40000200023F0B564250E46174600F024
:1016D0001F0085B00F4C40F020008DF80F00184619
:1016E0008DF80E30FFF7B2FF0DF10E020DF10F0174
:1016F000009501232046FFF7D7FA2B463A4631469C
:101700002046FFF728FA0120FFF7A0FF9DF80E0002
:1017100005B0F0BDE4000020002310B500F01F006C
:1017200086B040F020008DF8170018468DF80F1095
:101730008DF81630FFF78AFF64230C4C00930DF1EF
:1017400016020DF1170101232046FFF7ADFA4FF401
:101750007A7301220DF10F012046FFF7FCF90120F9
:10176000FFF774FF9DF8160006B010BDE4000020DE
:10177000F0B5002485B01D4B8DF80E201C4A1B7857
:1017800012788B421D4607468DF80D4028BF0D4646
:101790000AB95C1BE4B264260020FFF757FF0096ED
:1017A00001230DF10D020DF10E011248FFF77CFA35
:1017B00033462A4639460F48FFF7CDF900250D4E2E
:1017C000013CE4B2FF2C06D10120FFF73FFF9DF85A
:1017D0000D0005B0F0BD642301220DF10F0130466C
:1017E0008DF80F50FFF7B7F9EAE700BF8D00002032
:1017F0003C010020E4000020F7B51B4B07461C7895
:101800001A4B8C421B78264628BF0E4603BBA41BEE
:10181000E4B2612302AD05F8023D0020FFF716FF98
:101820002946642301221248FFF795F932466423C2
:1018300039460F48FFF728FB00250D4E013CE4B266
:10184000FF2C07D10120FFF701FF002003B0F0BDFE
:101850000024DEE7642301220DF1070130468DF8F4
:101860000750FFF711FBE9E78D0000203C01002045
:10187000E400002010B586B08DF80F00002006AC03
:1018800004F8010DFFF7E2FE4FF47A73224600934D
:101890000DF10F0101230548FFF706FA0120FFF7BC
:1018A000D5FE9DF8170006B010BD00BFE400002073
:1018B000E220FFF7DFBFE120FFF7DCBFFF20FFF7EB
:1018C000D9BF01460520FFF727BF0520FFF7D4BE8B
:1018D000014B1878704700BF8D00002008B5032029
:1018E000FFF7CAFE0138C0B202288CBF00200120D9
:1018F00008BD08B50020FFF7BFFE014610F002004A
:1019000009D141F00201C9B2FFF706FFBDE8084066
:101910000520FEF76DBC08BD10B51C46002A14BF9B
:10192000B022A022FFF724FF24B1BDE8104001201F
:10193000FFF79ABE10BD08B501231A46FFF7ECFF6A
:10194000FFF7BCFF10F0300FFAD00020FFF78CFE3D
:1019500070210720FFF7E0FEC30603D5FFF7ABFFBA
:10196000002008BD0120FCE770B5144606460020A3
:101970000D46FFF781FEA40144EA461444EA05112E
:1019800020F070000143C9B20020BDE87040FFF7AD
:10199000C3BE08B5FFF730FFBDE80840702107203F
:1019A000FFF7BABE37B502AC64E90201084D214623
:1019B0002A780A20FFF786FE2A7821461020FFF7B2
:1019C00081FE044B11201978FFF7A6FE03B030BD4D
:1019D0008C0000208D000020502337B50C4D02AC48
:1019E00004F8013D0020FFF731FE21464FF47A73E1
:1019F00001222846FFF7AFF84FF47A7301227321D2
:101A00002846FFF7A8F80120FFF720FE03B030BDFD
:101A1000E400002008B51D20FFF72EFE40F006016F
:101A2000C9B21D20FFF778FE1C20FFF725FE40F00D
:101A30000301C9B21C20FFF76FFE0122014B1A708F
:101A400008BD00BF3C01002008B51720FFF714FEB9
:101A5000C04300F0010008BD10B504460620FFF7A2
:101A60000BFE032C8EBF07246400013400F0F80144
:101A700098BF04F0FF0421430620BDE81040FFF7A3
:101A80004BBE08B50620FFF7F7FDC0F3410008BDC7
:101A900038B505460620FFF7EFFD022D00F0D7040C
:101AA0000B4B0ED19B2244F02004214606201A70D5
:101AB000FFF732FE0620FFF7DFFD231A5842584198
:101AC00038BD012D12BF552244F008044122ECE735
:101AD000930000202022F8B505270024294B2A4E28
:101AE0001A702A4B2A4D1F702A4B20461C703470E6
:101AF0002C70FFF7B9FD0120FFF7A8FD3846FEF76F
:101B000077FB0C212046FFF707FE5F210420FFF73B
:101B100003FE0320FFF7A0FF0220FFF7B9FF08B183
:101B2000012333700620FFF7A7FD0026044600209E
:101B3000FFF7AEFFFFF750FF00211D20FFF7ECFD80
:101B400000211C20FFF7E8FD702107202E70FFF711
:101B5000E3FD4C20FFF7B5FEFFF7AAFEFFF7ABFE53
:101B6000FFF7C7FE3046FFF787FD00F0FE01304665
:101B7000FFF7D2FD601EC0B2FD288CBF00200120FF
:101B8000F8BD00BF8D0000203D0100208C0000202A
:101B90003C0100208E00002008B50620FFF76CFDF8
:101BA00000F02800202804D0A0F108035842584132
:101BB00008BD0220FCE710B50020FFF75DFD0446DC
:101BC0000120FFF759FD230700D420B114F0040FC2
:101BD00014BF0220012010BD0E4B82B09A6942F062
:101BE00001029A619A6902F001020092009ADA6990
:101BF00042F08052DA61DB69074A03F080530193B7
:101C0000019B536823F0E06343F00073536002B01C
:101C1000704700BF001002400000014010B50446AC
:101C200086B01022002102A800F017F92268164B96
:101C30009A4226D103F560439A6902A942F4805280
:101C40009A619A69114802F480520092009A9A6946
:101C500042F004029A619B69A02203F004030193FD
:101C6000019B0223CDE9022303230593FEF73CFBEE
:101C7000402100230548CDE9021302A90493FEF791
:101C800033FB06B010BD00BF00300140000801402A
:101C900010B5044686B01022002102A800F0DDF83D
:101CA0002268174B9A4228D103F558439A6902A932
:101CB00042F480429A619A69124802F4804200928A
:101CC000009A9A6942F004029A619B694FF400728B
:101CD00003F004030193019B0223CDE902230323B4
:101CE0000593FEF701FB4FF4806100230548CDE921
:101CF000021302A90493FEF7F7FA06B010BD00BF65
:101D000000380140000801407047FEE7FEE7FEE7AB
:101D1000FEE7704770477047FEF758BA0420FEF799
:101D2000CFBB000008B50A4B0246196809B909493A
:101D300019606946186802448A4206D900F058F8CA
:101D40000C2303604FF0FF3008BD1A6008BD00BFD0
:101D500094000020440100200F4B1A6842F0010259
:101D60001A6059680D4A0A405A601A6822F0847253
:101D700022F480321A601A6822F480221A605A68AB
:101D800022F4FE025A604FF41F029A604FF0006284
:101D9000034B9A60704700BF001002400000FFF83C
:101DA00000ED00E0002103E00B4B5B584350043191
:101DB0000A480B4B42189A42F6D30A4A02E0002323
:101DC00042F8043B084B9A42F9D3FFF7C5FF00F0F5
:101DD00015F8FFF719FA7047642800080000002082
:101DE000700000207000002044010020FEE7000089
:101DF000014B1868704700BF0C00002070B500252B
:101E00000C4E0D4CA41BA410A54209D100F04AFCB5
:101E100000250A4E0A4CA41BA410A54205D170BD92
:101E200056F8253098470135EEE756F825309847A3
:101E30000135F2E75C2800085C2800085C280008EF
:101E40006028000810B5431E0A44914200D110BD1D
:101E500011F8014B03F8014FF7E7034602449342A0
:101E600000D1704703F8011BF9E700000CB430B54E
:101E7000174B0C1E9DB01D6808DA8B234FF0FF3006
:101E80002B601DB0BDE8304002B070474FF40273C4
:101E9000ADF814300CBF234604F1FF3304930793CD
:101EA0004FF6FF7302900690ADF81630209A21ABE2
:101EB00002A92846019300F067F8431CBCBF8B239E
:101EC0002B60002CDDD00022029B1A70D9E700BFE6
:101ED0000C0000202DE9F0478E6882469E420C4699
:101EE0009046994637D88A8912F4906F31D00223F0
:101EF000256809696F1A656905EB450595FBF3F5DA
:101F000009F101033B449D4238BF1D46530530D5BE
:101F1000294600F02DFB064650B90C234FF0FF3048
:101F2000CAF80030A38943F04003A381BDE8F087DD
:101F30003A462169FFF786FFA38923F4906343F0B3
:101F40008003A38126613E4426604E466561ED1BF9
:101F5000A5604E4500D94E4632464146206800F005
:101F6000A1FAA36800209B1BA36023681E4426607F
:101F7000DCE72A4600F056FB06460028E2D121693C
:101F8000504600F0A9FAC8E72DE9F04F1D468B89AD
:101F90009DB01F0680460C4616460FD50B696BB9DF
:101FA000402100F0E5FA2060206128B90C23C8F830
:101FB00000304FF0FF30C8E04023636100230993F5
:101FC00020238DF8293030234FF0010B8DF82A3073
:101FD000039537463D4615F8013B0BB1252B3ED105
:101FE000B7EB060A0BD05346324621464046FFF770
:101FF00071FF013000F0A480099B534409933B78A2
:10200000002B00F09D8000234FF0FF32CDE9052327
:10201000049307938DF853301A932F46052217F82F
:10202000011B504800F030FA049BD0B9D90644BFD8
:1020300020228DF853201A0744BF2B228DF85320FD
:102040002A782A2A15D02F4600200A25079A3946D1
:1020500011F8013B303B092B4DD9B8B10FE02F46A9
:10206000B8E7404A3D46801A0BFA00F01843049046
:10207000D3E7039A111D12680391002A01DB07922E
:1020800004E0524243F00203079204933B782E2B64
:102090000CD17B782A2B33D1039B02371A1D1B6886
:1020A0000392002BB8BF4FF0FF3305932E4D032250
:1020B0003978284600F0E8F938B14023401B03FA8C
:1020C00000F0049B01370343049339780622274824
:1020D0007E1C8DF8281000F0D7F9002838D0244B4A
:1020E00013BB039B073323F0070308330393099BB8
:1020F0004B4409936DE705FB023201200F46A6E72A
:1021000000230A25194601370593384610F8012B9C
:10211000303A092A03D9002BC8D00591C6E705FB40
:10212000012101230746F0E703AB00932246114B40
:1021300004A94046AFF30080B0F1FF3F8146D6D1FD
:10214000A3895B063FF535AF09981DB0BDE8F08F58
:1021500003AB00932246074B04A9404600F082F8E7
:10216000EAE700BF292800082F28000833280008C4
:1021700000000000D51E00082DE9F04791461F46DB
:102180008A680B6906469342B8BF1346C9F8003007
:1021900091F843200C46DDF8208012B10133C9F8D4
:1021A00000302368990642BFD9F800300233C9F8DD
:1021B0000030256815F0060507D104F1190AE36817
:1021C000D9F800209B1AAB4229DC94F843302268EE
:1021D000003318BF012392062ED404F1430239467E
:1021E0003046C047013021D02368E56803F006037C
:1021F000042B18BF0025D9F800204FF0000908BFB4
:10220000AD1AA368226908BF25EAE5759342C4BFE9
:102210009B1AED181A344D451AD1002008E001230D
:10222000524639463046C047013003D14FF0FF30A7
:10223000BDE8F0870135C2E73020E11881F843009E
:102240005A1C94F845102244023382F84310C4E724
:102250000123224639463046C0470130E6D009F115
:102260000109D8E72DE9F04301F1430C0C46097E42
:1022700085B06E291746064698460C9A00F0B38042
:1022800022D8632936D00AD8002900F0B98058290D
:1022900000F0838004F1420584F8421032E06429A2
:1022A00001D06929F6D120681368050603F10401FD
:1022B0002AD51B681160002B03DA2D225B4284F8BB
:1022C00043206F480A2239E0732900F09D8008D826
:1022D0006F2920D07029DDD1236843F020032360CB
:1022E00003E0752917D07829D4D17823654884F87C
:1022F000453055E0136804F14205191D1B68116053
:1023000084F8423001238CE01B6810F0400F11600C
:1023100018BF1BB2CFE713682568181D1060280688
:1023200001D51B6802E06806FBD51B886F2914BF26
:102330000A2208225248002184F843106568002DC3
:10234000A560C0F29580216821F004012160002B76
:102350003DD1002D40F08E806546082A0BD12368C0
:10236000DB0708D5236962689A42DEBF302305F88F
:10237000013C05F1FF35ACEB05032361CDF800808E
:102380003B4603AA21463046FFF7F6FE01304DD109
:102390004FF0FF3005B0BDE8F083394884F84510B0
:1023A000136821681D1D1B6815600A060BD5CA0736
:1023B00044BF41F0200121601BB9226822F02002B5
:1023C00022601022B7E74D0648BF9BB2EFE7654693
:1023D000B3FBF2F102FB1133C35C05F8013D0B4680
:1023E0000029F5D1B9E713682568181D61691060E7
:1023F00028061B6801D5196002E06A06FBD5198022
:10240000002365462361B9E71368191D11601D6833
:1024100062680021284600F037F808B1401B606070
:1024200063682361002384F84330A7E723692A46C1
:1024300039463046C0470130AAD023689B0713D4E1
:10244000E068039B9842B8BF1846A3E701234A46B9
:1024500039463046C04701309AD00135E368039AC7
:102460009B1AAB42F2DCEBE7002504F11909F5E712
:10247000002BACD1037804F1420584F842306CE7BC
:102480003A2800084B28000810B5C9B2024490420F
:10249000034601D1002303E01C7801308C42F6D1C1
:1024A000184610BD884210B501EB020307D8421E42
:1024B00099420AD011F8014B02F8014FF8E7834224
:1024C000F5D98118D21AD34200D110BD13F8014DAD
:1024D00001F8014DF7E7000038B50546002943D063
:1024E00051F8043C0C1F002BB8BFE41800F0D0F8E2
:1024F0001E4A1368104633B9636014602846BDE86D
:10250000384000F0C6B8A3420BD921686218934244
:1025100001BF1A685B685218226063600460EDE7CF
:1025200013465A680AB1A242FAD919685818A0424B
:102530000BD120680144581882421960DED110681E
:102540005268014419605A60D8E702D90C232B6005
:10255000D4E7206821188A4201BF1168526809181F
:10256000216062605C60C9E738BD00BF9800002050
:1025700070B5CD1C25F0030508350C2D38BF0C2592
:10258000002D064601DBA94203D90C23336000204D
:1025900070BD00F07DF8214A1468214691B9204CA5
:1025A00023681BB9304600F063F8206029463046A6
:1025B00000F05EF8431C24D10C233046336000F059
:1025C00068F8E4E70B685B1B18D40B2B0FD90B6082
:1025D000CC18CD50304600F05CF804F10B00231D00
:1025E00020F00700C31AD3D05A42E250D0E74B681C
:1025F0008C4216BF636013600C46EBE70C464968DB
:10260000CCE7C41C24F00304A04205D0211A3046B4
:1026100000F02EF80130CFD02560DBE798000020D5
:102620009C000020F8B5074614460E4621B9BDE8C7
:10263000F8401146FFF79CBF22B9FFF74DFF254632
:102640002846F8BD00F026F8A0420FD221463846B1
:10265000FFF78EFF05460028F2D031462246FFF7ED
:10266000F1FB31463846FFF737FFE9E73546E7E744
:1026700038B50023054C054608462360FFF752FB9A
:10268000431C02D1236803B12B6038BD40010020F8
:102690007047704751F8043C181F002BBCBF0B5803
:1026A000C0187047F8B500BFF8BC08BC9E4670471C
:0C26B000F8B500BFF8BC08BC9E4670479F
:1026BC0002030405060708090A0B0C0D0E0F101077
:1026CC004952510A004E4F54204F4B00436F6E6ECF
:1026DC0065637465643A2025730A00496E69743A1F
:1026EC002025730A006765745F7374617475733A9F
:1026FC00203078253032780A0067657450414C657B
:10270C0076656C3A2030782530327820200052469D
:10271C0032345F50415F4D494E0A00524632345FAD
:10272C0050415F4C4F570A00524632345F50415F64
:10273C00484947480A00524632345F50415F4D4188
:10274C00580A006765744368616E6E656C3A203098
:10275C00782530327820E284962025640A0067655B
:10276C007444617461526174653A2030782530325A
:10277C0078202000524632345F3235304B42505371
:10278C000A00524632345F324D4250530A005246D0
:10279C0032345F314D4250530A0067657450617991
:1027AC006C6F616453697A653A2025640A00676529
:1027BC00744352434C656E6774683A203078253008
:1027CC003278202000524632345F4352435F4449F2
:1027DC005341424C45440A00524632345F43524303
:1027EC005F380A00524632345F4352435F31360A37
:1027FC000041636B3A2025640A004E6F7420777297
:10280C006974650A0000000000000000000102036A
:10281C0004060708090000000001020304232D3000
:10282C002B2000686C4C00656667454647003031CC
:10283C00323334353637383941424344454600301B
:10284C00313233343536373839616263646566004A
:04285C00350100083A
:04286000110100085A
:1028640001000000100000000024F400100000200B
:102874000000000000000000000000000000000054
:102884000000000000000000000000000000000044
:102894000000000000000000000000000000000034
:1028A4000000000000000000000000000000000024
:1028B4000000000000000000000000000000000014
:1028C4000000000000000000000000000000000004
:0400000508001DA52D
:00000001FF
